{
  "_format": "hh-sol-artifact-1",
  "contractName": "SendMemeTokenSale",
  "sourceName": "contracts/SendMemeTokenSale.sol",
  "abi": [
    {
      "inputs": [
        {
          "internalType": "contract SendMeme",
          "name": "_SendMemeContract",
          "type": "address"
        },
        {
          "internalType": "uint256",
          "name": "_tokenPrice",
          "type": "uint256"
        }
      ],
      "stateMutability": "nonpayable",
      "type": "constructor"
    },
    {
      "anonymous": false,
      "inputs": [
        {
          "indexed": false,
          "internalType": "address",
          "name": "_buyer",
          "type": "address"
        },
        {
          "indexed": false,
          "internalType": "uint256",
          "name": "_amount",
          "type": "uint256"
        }
      ],
      "name": "Sell",
      "type": "event"
    },
    {
      "inputs": [],
      "name": "SendMemeContract",
      "outputs": [
        {
          "internalType": "contract SendMeme",
          "name": "",
          "type": "address"
        }
      ],
      "stateMutability": "view",
      "type": "function"
    },
    {
      "inputs": [
        {
          "internalType": "uint256",
          "name": "_numberOfTokens",
          "type": "uint256"
        }
      ],
      "name": "buyTokens",
      "outputs": [],
      "stateMutability": "payable",
      "type": "function"
    },
    {
      "inputs": [],
      "name": "tokenPrice",
      "outputs": [
        {
          "internalType": "uint256",
          "name": "",
          "type": "uint256"
        }
      ],
      "stateMutability": "view",
      "type": "function"
    },
    {
      "inputs": [],
      "name": "tokensSold",
      "outputs": [
        {
          "internalType": "uint256",
          "name": "",
          "type": "uint256"
        }
      ],
      "stateMutability": "view",
      "type": "function"
    }
  ],
  "bytecode": "0x608060405234801561001057600080fd5b50604051610740380380610740833981810160405281019061003291906100ec565b33600260006101000a81548173ffffffffffffffffffffffffffffffffffffffff021916908373ffffffffffffffffffffffffffffffffffffffff16021790555081600360006101000a81548173ffffffffffffffffffffffffffffffffffffffff021916908373ffffffffffffffffffffffffffffffffffffffff1602179055508060008190555050506101a4565b6000815190506100d181610176565b92915050565b6000815190506100e68161018d565b92915050565b600080604083850312156100ff57600080fd5b600061010d858286016100c2565b925050602061011e858286016100d7565b9150509250929050565b60006101338261014c565b9050919050565b600061014582610128565b9050919050565b600073ffffffffffffffffffffffffffffffffffffffff82169050919050565b6000819050919050565b61017f8161013a565b811461018a57600080fd5b50565b6101968161016c565b81146101a157600080fd5b50565b61058d806101b36000396000f3fe60806040526004361061003f5760003560e01c80633610724e14610044578063518ab2a8146100605780637ff9b5961461008b57806392918fe1146100b6575b600080fd5b61005e6004803603810190610059919061033f565b6100e1565b005b34801561006c57600080fd5b506100756102a5565b604051610082919061041d565b60405180910390f35b34801561009757600080fd5b506100a06102ab565b6040516100ad919061041d565b60405180910390f35b3480156100c257600080fd5b506100cb6102b1565b6040516100d89190610402565b60405180910390f35b80600360009054906101000a900473ffffffffffffffffffffffffffffffffffffffff1673ffffffffffffffffffffffffffffffffffffffff166370a08231306040518263ffffffff1660e01b815260040161013d91906103be565b60206040518083038186803b15801561015557600080fd5b505afa158015610169573d6000803e3d6000fd5b505050506040513d601f19601f8201168201806040525081019061018d9190610368565b101561019857600080fd5b7f5e5e995ce3133561afceaa51a9a154d5db228cd7525d34df5185582c18d3df0933826040516101c99291906103d9565b60405180910390a180600160008282546101e39190610438565b92505081905550600360009054906101000a900473ffffffffffffffffffffffffffffffffffffffff1673ffffffffffffffffffffffffffffffffffffffff1663a9059cbb33836040518363ffffffff1660e01b81526004016102479291906103d9565b602060405180830381600087803b15801561026157600080fd5b505af1158015610275573d6000803e3d6000fd5b505050506040513d601f19601f820116820180604052508101906102999190610316565b6102a257600080fd5b50565b60015481565b60005481565b600360009054906101000a900473ffffffffffffffffffffffffffffffffffffffff1681565b6000815190506102e681610529565b92915050565b6000813590506102fb81610540565b92915050565b60008151905061031081610540565b92915050565b60006020828403121561032857600080fd5b6000610336848285016102d7565b91505092915050565b60006020828403121561035157600080fd5b600061035f848285016102ec565b91505092915050565b60006020828403121561037a57600080fd5b600061038884828501610301565b91505092915050565b61039a8161048e565b82525050565b6103a9816104d6565b82525050565b6103b8816104cc565b82525050565b60006020820190506103d36000830184610391565b92915050565b60006040820190506103ee6000830185610391565b6103fb60208301846103af565b9392505050565b600060208201905061041760008301846103a0565b92915050565b600060208201905061043260008301846103af565b92915050565b6000610443826104cc565b915061044e836104cc565b9250827fffffffffffffffffffffffffffffffffffffffffffffffffffffffffffffffff03821115610483576104826104fa565b5b828201905092915050565b6000610499826104ac565b9050919050565b60008115159050919050565b600073ffffffffffffffffffffffffffffffffffffffff82169050919050565b6000819050919050565b60006104e1826104e8565b9050919050565b60006104f3826104ac565b9050919050565b7f4e487b7100000000000000000000000000000000000000000000000000000000600052601160045260246000fd5b610532816104a0565b811461053d57600080fd5b50565b610549816104cc565b811461055457600080fd5b5056fea26469706673582212207cef4db58ecb00367c5deee415fe78dfc255a8bfdea368613c6fe75901d7a29464736f6c63430008040033",
  "linkReferences": {},
  "deployedLinkReferences": {}
}