{
  "_format": "hh-sol-artifact-1",
  "contractName": "SendMeme",
  "sourceName": "contracts/SendMeme.sol",
  "abi": [
    {
      "inputs": [
        {
          "internalType": "uint256",
          "name": "_initialsupply",
          "type": "uint256"
        }
      ],
      "stateMutability": "nonpayable",
      "type": "constructor"
    },
    {
      "anonymous": false,
      "inputs": [
        {
          "indexed": true,
          "internalType": "address",
          "name": "_owner",
          "type": "address"
        },
        {
          "indexed": true,
          "internalType": "address",
          "name": "_spender",
          "type": "address"
        },
        {
          "indexed": false,
          "internalType": "uint256",
          "name": "_value",
          "type": "uint256"
        }
      ],
      "name": "Approval",
      "type": "event"
    },
    {
      "anonymous": false,
      "inputs": [
        {
          "indexed": true,
          "internalType": "address",
          "name": "_from",
          "type": "address"
        },
        {
          "indexed": true,
          "internalType": "address",
          "name": "_to",
          "type": "address"
        },
        {
          "indexed": false,
          "internalType": "uint256",
          "name": "_value",
          "type": "uint256"
        }
      ],
      "name": "Transfer",
      "type": "event"
    },
    {
      "inputs": [
        {
          "internalType": "address",
          "name": "",
          "type": "address"
        },
        {
          "internalType": "address",
          "name": "",
          "type": "address"
        }
      ],
      "name": "allowance",
      "outputs": [
        {
          "internalType": "uint256",
          "name": "",
          "type": "uint256"
        }
      ],
      "stateMutability": "view",
      "type": "function"
    },
    {
      "inputs": [
        {
          "internalType": "address",
          "name": "_spender",
          "type": "address"
        },
        {
          "internalType": "uint256",
          "name": "_value",
          "type": "uint256"
        }
      ],
      "name": "approve",
      "outputs": [
        {
          "internalType": "bool",
          "name": "success",
          "type": "bool"
        }
      ],
      "stateMutability": "nonpayable",
      "type": "function"
    },
    {
      "inputs": [
        {
          "internalType": "address",
          "name": "_owner",
          "type": "address"
        }
      ],
      "name": "balanceOf",
      "outputs": [
        {
          "internalType": "uint256",
          "name": "balance",
          "type": "uint256"
        }
      ],
      "stateMutability": "view",
      "type": "function"
    },
    {
      "inputs": [
        {
          "internalType": "address",
          "name": "",
          "type": "address"
        }
      ],
      "name": "balanceof",
      "outputs": [
        {
          "internalType": "uint256",
          "name": "",
          "type": "uint256"
        }
      ],
      "stateMutability": "view",
      "type": "function"
    },
    {
      "inputs": [],
      "name": "getTotalSupply",
      "outputs": [
        {
          "internalType": "uint256",
          "name": "",
          "type": "uint256"
        }
      ],
      "stateMutability": "view",
      "type": "function"
    },
    {
      "inputs": [],
      "name": "name",
      "outputs": [
        {
          "internalType": "string",
          "name": "",
          "type": "string"
        }
      ],
      "stateMutability": "view",
      "type": "function"
    },
    {
      "inputs": [],
      "name": "standard",
      "outputs": [
        {
          "internalType": "string",
          "name": "",
          "type": "string"
        }
      ],
      "stateMutability": "view",
      "type": "function"
    },
    {
      "inputs": [],
      "name": "symbol",
      "outputs": [
        {
          "internalType": "string",
          "name": "",
          "type": "string"
        }
      ],
      "stateMutability": "view",
      "type": "function"
    },
    {
      "inputs": [],
      "name": "totalSupply",
      "outputs": [
        {
          "internalType": "uint256",
          "name": "",
          "type": "uint256"
        }
      ],
      "stateMutability": "view",
      "type": "function"
    },
    {
      "inputs": [
        {
          "internalType": "address",
          "name": "_to",
          "type": "address"
        },
        {
          "internalType": "uint256",
          "name": "_value",
          "type": "uint256"
        }
      ],
      "name": "transfer",
      "outputs": [
        {
          "internalType": "bool",
          "name": "success",
          "type": "bool"
        }
      ],
      "stateMutability": "nonpayable",
      "type": "function"
    },
    {
      "inputs": [
        {
          "internalType": "address",
          "name": "_from",
          "type": "address"
        },
        {
          "internalType": "address",
          "name": "_to",
          "type": "address"
        },
        {
          "internalType": "uint256",
          "name": "_value",
          "type": "uint256"
        }
      ],
      "name": "transferFrom",
      "outputs": [
        {
          "internalType": "bool",
          "name": "success",
          "type": "bool"
        }
      ],
      "stateMutability": "nonpayable",
      "type": "function"
    }
  ],
  "bytecode": "0x60806040526040518060400160405280600481526020017f4d656d6500000000000000000000000000000000000000000000000000000000815250600090805190602001906200005192919062000255565b506040518060400160405280600381526020017f4d656d0000000000000000000000000000000000000000000000000000000000815250600190805190602001906200009f92919062000255565b506040518060400160405280600e81526020017f4d656d6520546f6b656e20312e3000000000000000000000000000000000000081525060029080519060200190620000ed92919062000255565b50348015620000fb57600080fd5b50604051620013453803806200134583398181016040528101906200012191906200031c565b80600460003373ffffffffffffffffffffffffffffffffffffffff1673ffffffffffffffffffffffffffffffffffffffff168152602001908152602001600020819055508060038190555062000182336200018960201b620009bb1760201c565b5062000433565b6200022981604051602401620001a0919062000359565b6040516020818303038152906040527f2c2ecbc2000000000000000000000000000000000000000000000000000000007bffffffffffffffffffffffffffffffffffffffffffffffffffffffff19166020820180517bffffffffffffffffffffffffffffffffffffffffffffffffffffffff83818316178352505050506200022c60201b60201c565b50565b60008151905060006a636f6e736f6c652e6c6f679050602083016000808483855afa5050505050565b8280546200026390620003b4565b90600052602060002090601f016020900481019282620002875760008555620002d3565b82601f10620002a257805160ff1916838001178555620002d3565b82800160010185558215620002d3579182015b82811115620002d2578251825591602001919060010190620002b5565b5b509050620002e29190620002e6565b5090565b5b8082111562000301576000816000905550600101620002e7565b5090565b600081519050620003168162000419565b92915050565b6000602082840312156200032f57600080fd5b60006200033f8482850162000305565b91505092915050565b620003538162000376565b82525050565b600060208201905062000370600083018462000348565b92915050565b600062000383826200038a565b9050919050565b600073ffffffffffffffffffffffffffffffffffffffff82169050919050565b6000819050919050565b60006002820490506001821680620003cd57607f821691505b60208210811415620003e457620003e3620003ea565b5b50919050565b7f4e487b7100000000000000000000000000000000000000000000000000000000600052602260045260246000fd5b6200042481620003aa565b81146200043057600080fd5b50565b610f0280620004436000396000f3fe608060405234801561001057600080fd5b50600436106100a95760003560e01c80635a3b7e42116100715780635a3b7e421461017a57806370a082311461019857806395d89b41146101c8578063a9059cbb146101e6578063c4e41b2214610216578063dd62ed3e14610234576100a9565b806306fdde03146100ae578063095ea7b3146100cc57806318160ddd146100fc57806323b872dd1461011a5780633d64125b1461014a575b600080fd5b6100b6610264565b6040516100c39190610c56565b60405180910390f35b6100e660048036038101906100e19190610b5b565b6102f2565b6040516100f39190610c3b565b60405180910390f35b6101046103e4565b6040516101119190610c98565b60405180910390f35b610134600480360381019061012f9190610b0c565b6103ea565b6040516101419190610c3b565b60405180910390f35b610164600480360381019061015f9190610aa7565b610670565b6040516101719190610c98565b60405180910390f35b610182610688565b60405161018f9190610c56565b60405180910390f35b6101b260048036038101906101ad9190610aa7565b610716565b6040516101bf9190610c98565b60405180910390f35b6101d061075f565b6040516101dd9190610c56565b60405180910390f35b61020060048036038101906101fb9190610b5b565b6107ed565b60405161020d9190610c3b565b60405180910390f35b61021e61098c565b60405161022b9190610c98565b60405180910390f35b61024e60048036038101906102499190610ad0565b610996565b60405161025b9190610c98565b60405180910390f35b6000805461027190610dd4565b80601f016020809104026020016040519081016040528092919081815260200182805461029d90610dd4565b80156102ea5780601f106102bf576101008083540402835291602001916102ea565b820191906000526020600020905b8154815290600101906020018083116102cd57829003601f168201915b505050505081565b600081600560003373ffffffffffffffffffffffffffffffffffffffff1673ffffffffffffffffffffffffffffffffffffffff16815260200190815260200160002060008573ffffffffffffffffffffffffffffffffffffffff1673ffffffffffffffffffffffffffffffffffffffff168152602001908152602001600020819055508273ffffffffffffffffffffffffffffffffffffffff163373ffffffffffffffffffffffffffffffffffffffff167f8c5be1e5ebec7d5bd14f71427d1e84f3dd0314c0f7b2291e5b200ac8c7c3b925846040516103d29190610c98565b60405180910390a36001905092915050565b60035481565b6000600460008573ffffffffffffffffffffffffffffffffffffffff1673ffffffffffffffffffffffffffffffffffffffff1681526020019081526020016000205482111561043857600080fd5b600560008573ffffffffffffffffffffffffffffffffffffffff1673ffffffffffffffffffffffffffffffffffffffff16815260200190815260200160002060003373ffffffffffffffffffffffffffffffffffffffff1673ffffffffffffffffffffffffffffffffffffffff168152602001908152602001600020548211156104c157600080fd5b81600460008673ffffffffffffffffffffffffffffffffffffffff1673ffffffffffffffffffffffffffffffffffffffff16815260200190815260200160002060008282546105109190610d25565b9250508190555081600460008573ffffffffffffffffffffffffffffffffffffffff1673ffffffffffffffffffffffffffffffffffffffff16815260200190815260200160002060008282546105669190610ccf565b9250508190555081600560008673ffffffffffffffffffffffffffffffffffffffff1673ffffffffffffffffffffffffffffffffffffffff16815260200190815260200160002060003373ffffffffffffffffffffffffffffffffffffffff1673ffffffffffffffffffffffffffffffffffffffff16815260200190815260200160002060008282546105f99190610d25565b925050819055508273ffffffffffffffffffffffffffffffffffffffff168473ffffffffffffffffffffffffffffffffffffffff167fddf252ad1be2c89b69c2b068fc378daa952ba7f163c4a11628f55a4df523b3ef8460405161065d9190610c98565b60405180910390a3600190509392505050565b60046020528060005260406000206000915090505481565b6002805461069590610dd4565b80601f01602080910402602001604051908101604052809291908181526020018280546106c190610dd4565b801561070e5780601f106106e35761010080835404028352916020019161070e565b820191906000526020600020905b8154815290600101906020018083116106f157829003601f168201915b505050505081565b6000600460008373ffffffffffffffffffffffffffffffffffffffff1673ffffffffffffffffffffffffffffffffffffffff168152602001908152602001600020549050919050565b6001805461076c90610dd4565b80601f016020809104026020016040519081016040528092919081815260200182805461079890610dd4565b80156107e55780601f106107ba576101008083540402835291602001916107e5565b820191906000526020600020905b8154815290600101906020018083116107c857829003601f168201915b505050505081565b600081600460003373ffffffffffffffffffffffffffffffffffffffff1673ffffffffffffffffffffffffffffffffffffffff168152602001908152602001600020541015610871576040517f08c379a000000000000000000000000000000000000000000000000000000000815260040161086890610c78565b60405180910390fd5b81600460003373ffffffffffffffffffffffffffffffffffffffff1673ffffffffffffffffffffffffffffffffffffffff16815260200190815260200160002060008282546108c09190610d25565b9250508190555081600460008573ffffffffffffffffffffffffffffffffffffffff1673ffffffffffffffffffffffffffffffffffffffff16815260200190815260200160002060008282546109169190610ccf565b925050819055508273ffffffffffffffffffffffffffffffffffffffff163373ffffffffffffffffffffffffffffffffffffffff167fddf252ad1be2c89b69c2b068fc378daa952ba7f163c4a11628f55a4df523b3ef8460405161097a9190610c98565b60405180910390a36001905092915050565b6000600354905090565b6005602052816000526040600020602052806000526040600020600091509150505481565b610a51816040516024016109cf9190610c20565b6040516020818303038152906040527f2c2ecbc2000000000000000000000000000000000000000000000000000000007bffffffffffffffffffffffffffffffffffffffffffffffffffffffff19166020820180517bffffffffffffffffffffffffffffffffffffffffffffffffffffffff8381831617835250505050610a54565b50565b60008151905060006a636f6e736f6c652e6c6f679050602083016000808483855afa5050505050565b600081359050610a8c81610e9e565b92915050565b600081359050610aa181610eb5565b92915050565b600060208284031215610ab957600080fd5b6000610ac784828501610a7d565b91505092915050565b60008060408385031215610ae357600080fd5b6000610af185828601610a7d565b9250506020610b0285828601610a7d565b9150509250929050565b600080600060608486031215610b2157600080fd5b6000610b2f86828701610a7d565b9350506020610b4086828701610a7d565b9250506040610b5186828701610a92565b9150509250925092565b60008060408385031215610b6e57600080fd5b6000610b7c85828601610a7d565b9250506020610b8d85828601610a92565b9150509250929050565b610ba081610d59565b82525050565b610baf81610d6b565b82525050565b6000610bc082610cb3565b610bca8185610cbe565b9350610bda818560208601610da1565b610be381610e64565b840191505092915050565b6000610bfb601283610cbe565b9150610c0682610e75565b602082019050919050565b610c1a81610d97565b82525050565b6000602082019050610c356000830184610b97565b92915050565b6000602082019050610c506000830184610ba6565b92915050565b60006020820190508181036000830152610c708184610bb5565b905092915050565b60006020820190508181036000830152610c9181610bee565b9050919050565b6000602082019050610cad6000830184610c11565b92915050565b600081519050919050565b600082825260208201905092915050565b6000610cda82610d97565b9150610ce583610d97565b9250827fffffffffffffffffffffffffffffffffffffffffffffffffffffffffffffffff03821115610d1a57610d19610e06565b5b828201905092915050565b6000610d3082610d97565b9150610d3b83610d97565b925082821015610d4e57610d4d610e06565b5b828203905092915050565b6000610d6482610d77565b9050919050565b60008115159050919050565b600073ffffffffffffffffffffffffffffffffffffffff82169050919050565b6000819050919050565b60005b83811015610dbf578082015181840152602081019050610da4565b83811115610dce576000848401525b50505050565b60006002820490506001821680610dec57607f821691505b60208210811415610e0057610dff610e35565b5b50919050565b7f4e487b7100000000000000000000000000000000000000000000000000000000600052601160045260246000fd5b7f4e487b7100000000000000000000000000000000000000000000000000000000600052602260045260246000fd5b6000601f19601f8301169050919050565b7f4e6f7420656e6f7567682062616c616e63650000000000000000000000000000600082015250565b610ea781610d59565b8114610eb257600080fd5b50565b610ebe81610d97565b8114610ec957600080fd5b5056fea26469706673582212205b00c77a83397a3ccbb314fe80dc8291b0a2f17b0c2841b466be488ecac608c964736f6c63430008040033",
  "linkReferences": {},
  "deployedLinkReferences": {}
}